:100000000C9431030C9478030C9478030C947803CB
:100010000C9478030C9478030C9478030C94780374
:100020000C9478030C9478030C94D5240C94A72595
:100030000C94ED1B0C9478030C9478030C947803C7
:100040000C9478030C9478030C9478030C94780344
:100050000C9478030C94551C0C9478030C9478033E
:100060000C9478030C9478030C9478030C94780324
:100070000C9478030C9478030C9478030C94780314
:100080000C9478030C9478030C9478030C94780304
:100090000C9478030C9478030C9478030C947803F4
:1000A0000C9478030C9478030C9478032C042E049D
:1000B0003904300432043404360438043B043D046B
:1000C0003F044A04410443044504470449044C04E2
:1000D00022122212541254129212B2122214221418
:1000E000F4122214A113A1131214221422141B14AB
:1000F000AE13AE13AE13AE13AE13AE13AE13AE13F8
:10010000AE13AE13AE13AE13AE13AE13AE13AE13E7
:10011000BF13CD13D413DB13E513B114B114C314FF
:10012000C314BA14C314C314C314B114B114BF1448
:10013000C314C314BF1414263B262D273B262D279A
:100140008726AA262D2700270F2707634236B79B4D
:10015000D8A71A39685618AEBAAB558C1D3CB7CC27
:100160005763BD6DEDFD753EF6177231BF0000009F
:10017000803F05A84CCDB2D44EB93836A9020C50F8
:10018000B9918688083CA6AAAA2ABE000000803F32
:10019000000000000000000000000000000000005F
:1001A00000000000000000001F50000000000000E0
:1001B0005F00600061002A005C005D005E002B00B3
:1001C00059005A005B002C000100620063005800D7
:1001D000620A590A5A0A5B0A5C0A5D0A5E0A5F0AE9
:1001E000600A610A570A560A1F50550A540A850ABE
:1001F0004A0052004B00E400500028004F00E60087
:100200004D0051004E00E7001F5049004C006500B2
:100210003A003B003C003D003E003F0040004100F2
:1002200042004300440045001F504600470048007C
:1002300000000000000000000000000000000000BE
:100240002C0037002D0238001F502A000000280023
:10025000000000000000000000000100000000009D
:1002600000000000000000001F500000000000001F
:10027000000000000000000000000000010000007D
:1002800000000000000000001F50000000000000FF
:10029000000000000000000000000000000001005D
:1002A00000000000000000001F50000000000000DF
:1002B000000000000000000000000000000000003E
:1002C00001000000000000001F50000000000000BE
:1002D000000000000000000000000000000000001E
:1002E00000000100010000001F500000000000009D
:1002F00000000000000000000000000000000000FE
:1003000000000000010000001F500000000000007D
:1003100000000000000000000000000000000000DD
:1003200000000000000001001F500000000000005D
:1003300000000000000000000000000000000000BD
:1003400000000000000000001F500000000000003E
:10035000000000000000000000000000000000009D
:1003600000000000000000001F500000000000001E
:100370001150125013501450155016501750185059
:1003800019501A501B501C500100005C2C005800E2
:1003900000046801F000B40078005A007F3F1F6439
:1003A0003214643214783C1E1E140A05000000004A
:1003B0000001010101010101010102020202020228
:1003C00002020203030303030303030404040404FB
:1003D00004050505050506060606060707070708BE
:1003E0000808080909090A0A0A0A0B0B0B0C0C0C6D
:1003F0000D0D0D0E0E0F0F0F101011111112121303
:10040000131414151516161717181819191A1A1B7C
:100410001C1C1D1D1E1F1F202021222223242525D8
:1004200026272728292A2B2B2C2D2E2F2F3031320F
:1004300033343536363738393A3B3C3D3E3F404120
:10044000424344464748494A4B4C4D4F5051525302
:10045000555657585A5B5C5E5F60626364666769B5
:100460006A6C6D6E707173747678797B7C7E808136
:10047000838486888A8B8D8F91929496989A9B9D7F
:100480009FA1A3A5A7A9ABADAFB1B3B5B7B9BBBD8C
:10049000BFC1C4C6C8CACCCFD1D3D6D8DADCDFE15D
:1004A000E4E6E8EBEDF0F2F5F7FAFCFF04033000C8
:1004B00000001003530077006500650074003100F0
:1004C000360000001C0331007500700020004B0056
:1004D0006500790062006F006100720064007300C3
:1004E00000000403090409026D00040100A0FA09D8
:1004F0000400000103010100092111010001224053
:10050000000705810308000A090401000103010234
:1005100000092111010001224D0007058203080096
:100520000A09040200010300000009211101000171
:100530002236000705830308000A090403000103AB
:100540000000000921110100012239000705840380
:100550002000011201100100000008EDFE10200132
:10056000000102030105010906A101050719E0299F
:10057000E715002501950875018102050819012973
:1005800005950575019102950175039101050719FE
:100590000029F71500250195F875018102C00501B4
:1005A0000980A10185021601002603001A81002A94
:1005B0008300751095018100C0050C0901A101851A
:1005C00003160100269C021A01002A9C0275109550
:1005D000018100C005010902A1010901A10005096D
:1005E000190129051500250195057501810295015F
:1005F000750381010501093009311581257F9502B7
:100600007508810609381581257F950175088106D1
:10061000050C0A38021581257F950175088106C0F1
:10062000C005010906A101050719E029E715002504
:100630000195087501810295017508810105081968
:100640000129059505750191029501750391010533
:1006500007190029FF150026FF009506750881007F
:10066000C00011241FBECFEFDAE0DEBFCDBF04B65D
:1006700003FE27C08091320290913302A091340290
:10068000B09135028730904BA740B04BD1F4109217
:10069000320210923302109234021092350214BECC
:1006A00084B7877F84BF0FB6F894A89580916000C7
:1006B000886180936000109260000FBEE0E0F8E374
:1006C000099511E0A0E0B1E0E4E4F6E502C0059090
:1006D0000D92A233B107D9F722E0A2E3B1E001C045
:1006E0001D92A233B207E1F70E94FA210C94202B4D
:1006F0000C94000081E0089581E008950C947C033F
:100700000E949F142FEF84E39CE021508040904092
:10071000E1F700C000000C947B1CFF920F931F9325
:10072000CF93DF938C01FC01C081D181809177014F
:10073000811113C08281882349F0CE010E94CD1916
:10074000F82E682FCE010E94741904C0CE010E94B9
:10075000A219F82EBE018F2D04C0CE010E94CD1922
:10076000BE010E943A06EC01B8010E947E03882374
:1007700009F46CC2B801CE010E949A08882309F4DA
:1007800065C2C93CFCE5DF0741F4F801828188239A
:1007900009F45CC20E94850A59C2CA3C8CE5D8079C
:1007A00008F013C1C13C9CE5D90761F4F8018281CE
:1007B000882309F44BC20E949E1A8272F1F00E94B3
:1007C0006E0C44C2C23CECE5DE07D0F0F801828139
:1007D000C53CFCE5DF0709F4CDC008F0DDC0C33C33
:1007E000ECE5DE0709F4CCC008F0D0C0882309F49A
:1007F0002DC20E949E1A827211F30E94640C26C2BE
:10080000C531FCE5DF0708F07EC0C2308CE5D807B3
:1008100008F452C0F8018281882309F459C00E946B
:10082000FB1A811102C00E94DA1A0E94181B90E084
:100830009093240280932302FE01E350FC45E231B1
:10084000F10530F4EA5AFF4F809123020C94D22A2A
:1008500080912302816027C0826025C0846023C00C
:10086000806121C080621FC080641DC080681BC081
:100870008460886018C08E7F16C08D7F14C08B7F07
:1008800012C08F7E10C08F7D0EC08F7B0CC08F7703
:100890000AC08B7F877F07C087FB222720F991E062
:1008A000922790FB87F980932302809123020E9474
:1008B0001C1B0E949F14CAC1C1159CE5D90781F079
:1008C000C130DC45A9F081E0809337018093380185
:1008D000C801DF91CF911F910F91FF900C947A0383
:1008E000F8018281882309F4B1C10E948003AEC15E
:1008F000F8018281882309F4A9C18091E701816010
:100900008093E701A3C1C531FCE5DF0739F50E94FB
:100910009E1A282FF8018281409102015091030113
:10092000882379F02A7A91E009F490E090933201DB
:10093000911102C069E201C065E3CA010E947D1BFA
:100940000AC080913201811102C069E201C065E3F1
:10095000CA010E94881B0E946B1A78C1C03CDC450A
:1009600009F0B1CFF8018281882309F46FC10E9498
:10097000CC0C6CC1882309F469C10E94A90B66C123
:10098000882309F463C10E94720B60C1882309F4B3
:100990005DC10E948A0B5AC1C73C9CE5D90731F45E
:1009A000882309F453C10E94DE0B50C1C83CDC45CA
:1009B00030F4882309F44AC10E94C40B47C188233C
:1009C00009F444C10E94F90B41C1C13DFCE5DF07B8
:1009D00049F4F8018281882309F438C188E10E9432
:1009E000610C34C1C23D8CE5D80708F087C0F8011E
:1009F0008281CD3CFCE5DF07A1F4882309F426C100
:100A00000E94770A663071058105910540F00E94C9
:100A1000770A683071058105910508F4EECE86E00D
:100A2000DECFCE3C9CE5D90730F5CB3CECE5DE07CC
:100A300029F4882309F40AC181E0D1CFCC3CDC45FC
:100A400030F4882309F402C10E949A0AFFC0882367
:100A500009F4FCC00E94770A623071058105910596
:100A600040F00E94770A653071058105910508F410
:100A7000C4CE82E0B4CFCF3C9CE5D907A1F4882353
:100A800009F4E4C00E94770A6F3071058105910571
:100A900040F00E94770A643171058105910508F4E0
:100AA000ACCE8FE09CCFC03DDC45A0F4882309F498
:100AB000CDC00E94770A693071058105910540F02B
:100AC0000E94770A6E3071058105910508F495CE74
:100AD00089E085CF882309F4B9C00E94770A65317F
:100AE00071058105910540F00E94770A6731710513
:100AF0008105910508F481CE85E171CFC53DFCE506
:100B0000DF0739F5F8018281882361F010923801FE
:100B10000E941F1C909336018093350180E20E9451
:100B2000DE1194C08091380181110FC08091350190
:100B3000909136010E942B1C883C910530F487E28D
:100B40000E94881087E20E947F1180E20E94E511D6
:100B50007DC0C63D8CE5D80708F043C0F80182810E
:100B6000C33DFCE5DF0729F4882309F46FC083E265
:100B700036CFC43DDC45A0F4882309F467C00E9449
:100B8000770A693171058105910540F00E94770A65
:100B9000623271058105910508F42FCE89E11FCFDE
:100BA000882351F0109237010E941F1C909334014A
:100BB0008093330182E0B3CF8091370181110FC060
:100BC00080913301909134010E942B1C883C910547
:100BD00030F486E20E94881086E20E947F1182E053
:100BE000B5CFC93DECE5DE0731F4F80182818823F9
:100BF00069F180E009C0CA3DFCE5DF0741F4F80176
:100C00008281882319F182E00E9498221FC0C63D8C
:100C1000DC4509F058CEF8018281811177CF8091AF
:100C20003801811192CF80913501909136010E9457
:100C30002B1C883C910508F088CF80E20E94E511CA
:100C400088E20E94881088E20E947F1180E0DF9194
:100C5000CF911F910F91FF9008950C94EA080C9486
:100C6000ED0808950C9431060C94320680E090E073
:100C700008950895E72FF0E094E0899FE00DF11DBD
:100C80001124EE0FFF1FEE0FFF1FE60FF11DEE0FF9
:100C9000FF1FE057FE4F859194910895880F991F8B
:100CA000FC01E057FC4F859194910895CF93DF9319
:100CB0000E943A060E94F907EC01811520E592078F
:100CC000F0F5811530E4930708F018C1883E9105CE
:100CD00000F5803E910508F088C1883A910570F4CE
:100CE000853A910508F09AC08130910509F47DC1DB
:100CF00008F434C1049708F078C130C18D3B9105E8
:100D000008F497C0803C910508F428C1805C9109E3
:100D1000E7C08115904258F4C11581E0D80708F06A
:100D200064C1C03FD10508F419C1D0655EC1C115C9
:100D300090E3D90708F0D8C0CE019F70D1C08115CB
:100D400025E5920708F043C0811534E5930708F0C4
:100D5000ECC0811542E5940708F5C11581E5D80777
:100D600008F0CFC02C2F237081E090E002C0880FE4
:100D7000991F2A95E2F79C689E0174E036952795A5
:100D80007A95E1F72370922BCF70C695C69530E225
:100D9000C39FE0011124C82BD92B27C186958695C6
:100DA0009E0123703327C115D34508F0AFC040E240
:100DB000849FC0011124C1E0D0E002C0CC0FDD1F30
:100DC0002A95E2F78C2B9D2BEC01DC680EC1811576
:100DD00029E5920778F4811538E5930708F0AAC051
:100DE0008115964508F0BAC0CF71DD27DC2FCC27DE
:100DF000D062FBC0C1158AE5D80708F4A0C0CE01B7
:100E000090568115904208F0A9C08D2F8F710E94D5
:100E10007608DD27D0628F71D82BE7C0853A91051F
:100E200009F49FC0863A910509F09EC0C2E8D0E45B
:100E3000DCC0883A910509F49AC0893A910509F411
:100E400099C08A3A910509F498C08B3A910509F442
:100E500097C08C3A910509F496C08B3B910509F433
:100E600095C08C3B910509F494C08D3A910509F425
:100E700093C0803B910509F492C08E3A910509F424
:100E800091C08F3A910509F490C0813B910509F416
:100E90008FC0823B910509F48EC0833B910509F414
:100EA0008DC0843B910509F48CC0853B910509F404
:100EB0008BC0863B910509F48AC0873B910509F4F4
:100EC00089C0883B910509F488C0893B910509F4E4
:100ED00087C08A3B910509F486C0C0E0D4E485C090
:100EE0000E944E06EC0181C0CE019927D3FF03C0BA
:100EF000EC01D86C7AC0EC01D06C77C0DF70D06A9E
:100F000074C0DC2FCC27C16FD06A6FC040E2849FD1
:100F1000C0011124C1E0D0E002C0CC0FDD1F2A9532
:100F2000E2F7C82BD92BDA6860C0D82FCC27C46F62
:100F3000D06A5BC0D82FCC27C06FD06A56C08C2F28
:100F40008F70806E90E0906A24E0D695C7952A95C0
:100F5000E1F7CF709C013C2BE90147C0C0E0D0E035
:100F600044C0C1E8D0E441C0C3E8D0E43EC0C2EE12
:100F7000D4E43BC0C9EED4E438C0CAEED4E435C0F2
:100F8000C5EBD4E432C0C6EBD4E42FC0C3EBD4E449
:100F90002CC0C4EBD4E429C0C7EBD4E426C0CCEC0D
:100FA000D4E423C0CDECD4E420C0C3E8D5E41DC014
:100FB000CAE8D5E41AC0C2E9D5E417C0C4E9D5E44B
:100FC00014C0C1E2D6E411C0C3E2D6E40EC0C4E24C
:100FD000D6E40BC0C5E2D6E408C0C6E2D6E405C03C
:100FE000C7E2D6E402C0CAE2D6E4CE01DF91CF91D7
:100FF00008958238910549F1B0F48133910509F4DF
:1010000058C048F48932910509F44EC08A329105DE
:1010100009F454C008958533910509F440C089331B
:10102000910599F00895833E910529F138F4803EA9
:10103000910591F0823E9105A1F00895863E9105BB
:10104000F9F0873E910531F108952091230220FDAA
:101050003AC021FD38C008958091230280FD35C03B
:1010600032C08091230282FF32C08091230284FD2E
:1010700030C083EE39C08091230282FD28C0F5CFB5
:101080008091230283FF27C08091230284FD21C029
:1010900087EE2AC08091230283FD1DC0F5CF809189
:1010A000230285FD1AC01BC08091230285FD17C055
:1010B00014C08091230286FD14C015C080912302C4
:1010C00086FD11C00EC080EE0FC089E30DC082EE18
:1010D0000BC080E009C086EE07C089E205C085E349
:1010E00003C08AE201C081E390E008959091230259
:1010F00092FF0DC0282F2871283019F4877F846053
:1011000006C0282F2471243011F48B7F886093FF50
:101110000DC0282F2871283119F4877E846106C0FC
:10112000282F2471243111F48B7E886194FD877EF1
:10113000089508950F931F93CF93FB0122812111EE
:1011400002C0C1E041C08C01C0914601C11125C05F
:1011500086319C45B1F70E94990881E08093460151
:101160000E941F1C90934501809344011092390105
:1011700010923B0110923A0110923D0110923C01F5
:1011800010923F0110923E011092410110924001D5
:10119000109243011092420117C080914401909136
:1011A00045010E942B1C8C32914058F690913901D8
:1011B000E92FF0E0EE0FFF1FE65CFE4F1183008386
:1011C0009F5F90933901C0E08C2FCF911F910F91B9
:1011D000089508950C94E90808950C94EC08A9E189
:1011E000B1E041E050E024E02A0F8D91E82FE29534
:1011F000EF70F0E031A18F70BA0102C0660F771F67
:101200008A95E2F7CB01962F9095932391A392A113
:10121000892B82A32A13E9CFA5E1B1E041E050E098
:1012200024E02A0F8D91E82FE295EF70F0E031A1D4
:101230008F70BA0102C0660F771F8A95E2F7CB0163
:10124000962F9095932391A392A1892B82A32A1381
:10125000E9CF10924B011092470110924C0110926D
:10126000480110924D011092490110924E011092C6
:101270004A010C942D064F925F927F928F929F921B
:10128000AF92BF92CF92DF92EF92FF920F931F9394
:10129000CF93DF9329E1E22E21E0F22EC7E4D1E0E3
:1012A00001E010E0AA24A394BC2E34E0B30E6E013A
:1012B00098801882D7018D917D01E82FE295EF701B
:1012C000F0E021A18F70A80102C0440F551F8A953C
:1012D000E2F7CA01242B21A332A1242F2095322327
:1012E00032A350EA5A95F1F795E1492E91E0592E33
:1012F00040E050E0D2013D912D01632F62956F7067
:1013000070E0DB0190967C9088803F70B80101C04E
:10131000660F3A95EAF7672139F4302F042E01C0A1
:10132000330F0A94EAF701C030E0382938834F5F61
:101330005F4F44305105F1F691A1292321A392A1D9
:10134000892B82A32196F6018081981641F0A09204
:101350004F010E941F1C9093510180935001BC12B9
:10136000A6CF80914F018823D1F0809150019091B8
:1013700051010E942B1C069790F0809147018093A9
:101380004B018091480180934C01809149018093E9
:101390004D0180914A0180934E0110924F010E94AD
:1013A0002F0681E0DF91CF911F910F91FF90EF9079
:1013B000DF90CF90BF90AF909F908F907F905F9085
:1013C0004F900895E82FF0E0E55BFE4F808108958F
:1013D0000895EF92FF920F931F93CF93DF93E9014C
:1013E000662309F44BC0242F30E0EFEFF0E0E61B5A
:1013F000F109B901E69F9001E79F300DF69F300D8E
:101400001124232F8B01031B11095CE3E52EF12C22
:10141000B7010E94AA2AFB01BC01069FC001079FD9
:10142000900D169F900D1124B7010E94AA2AE23058
:10143000F105B1F040F4309779F0319711F5832F31
:10144000242F461B21C0E430F105A1F068F0359748
:10145000C1F4842F861B18C0832F262F230F14C09E
:10146000862F830FE42F03C0E42FE61B842F432F26
:101470002E2F0AC0842F462F430F06C0842F242FFF
:1014800003C080E020E040E0E42FF0E0E455FC4FB2
:101490004491E22FF0E0E455FC4F9491E82FF0E006
:1014A000E455FC4FE49149839883EA83DF91CF911F
:1014B0001F910F91FF90EF90089588E090E00C94B9
:1014C000E02AAB01BC0188E090E00C94FE2AE5E143
:1014D000F2E083E08083109216028FEF8283838391
:1014E000148260817181828193810C94610A609180
:1014F000150260FF06C066956F7370E080E090E0B3
:10150000089560E070E0CB0108958091190290E0A9
:1015100001968430910514F083E090E080931902E5
:101520006091150270911602809117029091180235
:101530000C94610A8091190290E0019797FF02C014
:1015400080E090E08430910514F083E090E0809397
:101550001902609115027091160280911702909104
:1015600018020C94610A8091150280FD06C0109249
:101570001B0210921A0210921C0261E070E08AE1D4
:1015800092E00C94430F9091150290FF08C0809355
:101590001B0260931A0240931C020C94B30A089534
:1015A000CF93DF9300D01F92CDB7DEB72091150205
:1015B00020FF0AC09E012F5F3F4F0E94E9094B8127
:1015C00069818A810E94C30A0F900F900F90DF916A
:1015D000CF910895DF92EF92FF920F931F93CF93D5
:1015E000DF9300D01F92CDB7DEB78C01E62EF42E2C
:1015F000D22E8091150280FF67C0982F9E7792307F
:1016000061F49E012F5F3F4FC8010E94E9094B81A1
:1016100069818A810E94C30A37C0E82FE695EF737B
:101620009EE39E0F9F73943018F4F09018022CC024
:101630009AE39E0F9F73993068F4881F8827881F4C
:1016400090911602292F220F022F082B97FB1127AA
:1016500010F91AC087E28E0F8F738A30A8F4F0E079
:101660007997EE7FEE56FC4F85919491C801885989
:101670009E4F68E671E00E94AA2A2AE132E06E2DB0
:101680000E94E9090E94B30A8091150200FB87F9C4
:1016900080931502902F9695809116028078892B61
:1016A00010FB87F980931602E0921702F09218025D
:1016B000DD2051F0609115027091160280911702A1
:1016C000909118020E94610A0F900F900F90DF9185
:1016D000CF911F910F91FF90EF90DF90089521E03F
:1016E0000C94EA0AE5E1F2E02081221F2227221F62
:1016F00030911602432F440F842F822B37FB9927FA
:1017000090F9089668E671E00E94BE2A43816281E2
:101710000C946F0B20911502221F2227221F30915B
:101720001602432F440F842F822B37FB992790F901
:10173000883091051CF4805A9E4F01C0089768E6D6
:1017400071E00E94BE2A40911802609117020C9429
:101750006F0B60911702862F90E0883F910514F47B
:10176000685F01C06FEF80911502881F8827881F6E
:1017700090911602292F220F97FB992790F94091FB
:101780001802822B0C946F0B60911702862F90E049
:10179000089714F0685001C060E080911502881F1E
:1017A0008827881F90911602292F220F97FB9927CF
:1017B00090F940911802822B0C946F0B4091180203
:1017C000842F90E0883F910514F4485F01C04FEFEB
:1017D00080911502881F8827881F90911602292F53
:1017E000220F97FB992790F960911702822B0C9496
:1017F0006F0B40911802842F90E0089714F0485026
:1018000001C040E080911502881F8827881F9091B1
:101810001602292F220F97FB992790F96091170242
:10182000822B0C946F0B20E00C94EA0A9091150225
:1018300090FF46C09178811102C0926007C0843247
:1018400010F0966403C08F73880F982B9093150245
:10185000662351F060911502709116028091170273
:10186000909118020E94610A80911502382F3E77EC
:10187000323019F410926B0112C0982F96959F7315
:101880002EE3290F2F73273110F0363421F491E025
:1018900090936B0104C0995D9F739A3058F3881F31
:1018A0008827881F90911602292F220F97FB9927CE
:1018B00090F94091180260911702822B0C94130C3E
:1018C000089561E00C94160C8091150286958F7333
:1018D0008F5F843208F081E00C94610C80911502D6
:1018E00086958F73815009F483E20C94610CE5E1D5
:1018F000F2E080818160808386958F730C94610C07
:1019000060E00C94160C8091E70181608093E70100
:101910000E94FB1A811104C00E94DA1A0E94670A11
:101920000E945D0A6093150270931602809317025D
:10193000909318026E7761F40E94670A0E945D0A14
:101940006093150270931602809317029093180209
:1019500081E080936B018091150280FF04C0869521
:101960008F730C94800C0895E5E1F2E080818E7F06
:10197000808360817181828193810E94610A1092CB
:101980006B012FEF80E792E0215080409040E1F71B
:1019900000C000000C94B30A8091150280FD0C94E5
:1019A000B40C0C94770CCF93C82F8091690190915F
:1019B0006A010E942B1CEC2FF0E0E855FC4FE491EB
:1019C000F0E08E179F0708F443C00E941F1C9093FD
:1019D0006A01809369016091680170E080E090E0A5
:1019E0000E94AB2820E030E04FE753E40E94CE276E
:1019F0002BED3FE049E450E40E94D4290E94412AA3
:101A00000E9448282BE43AE34EE25FE30E946127FC
:101A100020EF3BEF48ED52E40E94D4290E947A283F
:101A2000462F80911502881F8827881F90911602E3
:101A3000292F220F97FB992790F960911702822B8B
:101A40000E94D00A8091680190E00196809368011D
:101A5000CF910895CF93C82F80916601909167012F
:101A60000E942B1CEC2FF0E0EB55FC4FE491F0E0D2
:101A70008E179F07E8F00E941F1C909367018093C8
:101A80006601409118026091170280916401909163
:101A900065010E94D00A80916401909165010196D0
:101AA00068E671E00E94AA2A909365018093640120
:101AB000CF9108951F93CF93DF93182F80916201E8
:101AC000909163010E942B1CE12FE695F0E0EE550A
:101AD000FC4FE491F0E08E179F0778F10E941F1CE5
:101AE0009093630180936201809160019091610104
:101AF000C8E6D1E0BE010E94AA2A2AE132E0409164
:101B00001802609117020E94E9090E94B30A20910D
:101B100060013091610110FF0AC0C9010196BE0148
:101B20000E94AA2A909361018093600106C021500F
:101B300031093093610120936001DF91CF911F91B2
:101B400008950F931F93CF93DF93C82F80FF02C098
:101B50001FEF01C011E080915E0190915F010E9432
:101B60002B1CC695EC2FF0E0E156FC4FE491F0E021
:101B70008E179F0708F445C00E941F1C90935F01B9
:101B800080935E0110921B0210921A0210921C02A6
:101B9000C4E0D0E000E080915D01800F87FD8F5FA1
:101BA00081111EC0809118028C9FA0018D9F500D45
:101BB0001124559547955595479580911502881F95
:101BC0008827881F90911602592F550F97FB992748
:101BD00090F92AE132E060911702852B0E94E90911
:101BE000010F2197C1F60E94B30A113021F48091B0
:101BF0005D01811103C010925D0103C0815080938B
:101C00005D01DF91CF911F910F910895CF93C82F60
:101C100080915B0190915C010E942B1CEC2FF0E005
:101C2000E456FC4FE491F0E08E179F0708F43EC0A5
:101C30000E941F1C90935C0180935B0110921B0219
:101C400010921A0210921C0280915A011816CCF0C0
:101C50008091010187FD15C080911502881F88279A
:101C6000881F90911602592F550F97FB992790F9CD
:101C70002AE132E04091180260911702852B0E9400
:101C8000E9090E94B30A8091000190915A01980FCE
:101C900090935A0120910101280F209301011216FF
:101CA00014F497FD03C0819580930001CF910895AE
:101CB00080915801909159010E942B1C883E9340BD
:101CC00010F10E941F1C909359018093580180913C
:101CD0005601909157010196817099279093570171
:101CE000809356012AE132E0409118026091170278
:101CF00058E7FC015E9FC0015F9F900D11240E9478
:101D0000E9090C94B30A0895CF93DF9300D01F9292
:101D1000CDB7DEB780915401909155010E942B1CE4
:101D2000E0E9F3E02591349182179307C0F18091A7
:101D3000530181110CC09E012F5F3F4F4FEF6FEF9A
:101D400080E090E00E94E9098A81809353010E941B
:101D50001F1C909355018093540180915201813052
:101D600051F028F0823061F4409153010AC0809113
:101D7000530140E007C06091530140E080E003C0A0
:101D800040E080E060E00E94C30A8091520190E050
:101D9000019663E070E00E94BE2A809352010F908A
:101DA0000F900F90DF91CF91089580916B01882360
:101DB000B9F190911502892F86958F732EE3280F24
:101DC0002F73243018F482500C94D30C2AE3280F7C
:101DD0002F73233018F486500C942A0D27E3280F14
:101DE0002F73263018F489500C945A0D21E3280FD4
:101DF0002F73263018F48F500C94A10D2BE2280F6E
:101E00002F73233018F485510C94060E892F8E778A
:101E1000803311F40C94580E863411F40C94840E13
:101E2000089525B1342F3095232335B1432B3FB787
:101E3000F894FC01680F791FE617F70789F0819184
:101E400098E045B9000000C087FF25B9880F000061
:101E500000C000C000C025B900C09A9591F7ECCF32
:101E60003FBF089524B1242B24B99B01220F331FB7
:101E7000620F731F0E94110F87EC90E00197F1F73A
:101E800000C00000089542E00C94320F909371015D
:101E9000809370010895E0917001F0917101309785
:101EA00021F00190F081E02D099480E00895E09107
:101EB0007001F0917101309721F00280F381E02DE3
:101EC00009940895E0917001F0917101309721F02B
:101ED0000480F581E02D0994089520916E013091E0
:101EE0006F018217930771F090936F0180936E01D9
:101EF000E0917001F0917101309721F00680F78137
:101F0000E02D0994089520916C0130916D018217A4
:101F1000930771F090936D0180936C01E0917001D3
:101F2000F0917101309721F00084F185E02D099442
:101F3000089508950C94990F81E008950E94161C4D
:101F400085B7806885BF85B7806885BF0E94EF0828
:101F50000E94E31C0C94830CCF92DF92EF92FF92CD
:101F60000F931F93CF93DF93CDB7DEB72B970FB6A9
:101F7000F894DEBF0FBECDBF0E943B090E949C0FAC
:101F8000811111C08FEF89838A831B820E941F1CDD
:101F90008160782F9D838C8349815A816B818D81EB
:101FA0000E94541056C083E7C82E81E0D82E00E06E
:101FB00010E0E02E802F0E94E209F60141916F01AE
:101FC000F42EF82631F40F5F1F4F0430110589F706
:101FD000D9CF9091E70191FF04C08B870E94E80957
:101FE0008B8520E030E04F2D50E0922FBA01022E79
:101FF00002C0759567950A94E2F760FF24C02E83AE
:10200000EF8221E030E0690102C0CC0CDD1C9A9522
:10201000E2F790E08C219D21892B09F420E02887AC
:102020000E941F1C8160782F9A8789874E815F816B
:1020300068858A850E945410F801ED58FE4F808112
:10204000C826C08206C02F5F3F4F2430310569F695
:10205000BACF0E94861F109172010E944B0F181771
:10206000A1F00E944B0F809372012B960FB6F8944B
:10207000DEBF0FBECDBFDF91CF911F910F91FF90BB
:10208000EF90DF90CF900C9434062B960FB6F89417
:10209000DEBF0FBECDBFDF91CF911F910F91FF909B
:1020A000EF90DF90CF900895CF93DF93CDB7DEB759
:1020B0002B970FB6F894DEBF0FBECDBF4F83588766
:1020C00069877A878B87DE01119686E0FD01119280
:1020D0008A95E9F785E0FE01379601900D928A9581
:1020E000E1F749815A816B817C818D819E810E94BB
:1020F00046172B960FB6F894DEBF0FBECDBFDF910B
:10210000CF910895FC01808191810E940C1A08955D
:10211000882309F4F3C0682F8238C1F40E944B0F62
:1021200081FDECC069E380910201909103010E945E
:102130007D1B0E946B1A2FEF81EE94E021508040AE
:102140009040E1F700C0000069E319C08338F9F45A
:102150000E944B0F80FDD2C063E5809102019091F7
:1021600003010E947D1B0E946B1A2FEF81EE94E009
:10217000215080409040E1F700C0000063E580916D
:102180000201909103010E94881B0C946B1A843801
:10219000C1F40E944B0F82FDB1C067E4809102013F
:1021A000909103010E947D1B0E946B1A2FEF81EE1C
:1021B00094E0215080409040E1F700C0000067E4C7
:1021C000DECF8CEF860F813A38F480910201909136
:1021D00003010E947D1BD9CF80E2860F883048F42E
:1021E000677081E001C0880F6A95EAF70E94A11A22
:1021F000CCCF8BE5860F833070F4653A29F0663AD0
:1022000031F083E890E005C081E890E002C082E808
:1022100090E00C946D0F88E5860F853108F06EC054
:10222000683A61F1693A69F16A3A71F16B3A79F1A8
:102230006C3A81F16B3B89F16C3B91F16D3A99F10C
:10224000603BA1F16E3AA9F16F3AB1F1613BB9F18E
:10225000623BC1F1633BC9F1643BD1F1653BD9F10C
:10226000663BE1F1673BE9F1683BF1F1693BF9F16C
:102270006A3B09F43FC080E090E03EC082EE90E00F
:102280003BC089EE90E038C08AEE90E035C085EB27
:1022900090E032C086EB90E02FC083EB90E02CC042
:1022A00084EB90E029C087EB90E026C08CEC90E0B6
:1022B00023C08DEC90E020C083E891E01DC08AE847
:1022C00091E01AC082E991E017C084E991E014C05E
:1022D00081E292E011C083E292E00EC084E292E0DB
:1022E0000BC085E292E008C086E292E005C087E27A
:1022F00092E002C08AE292E00C94830F0895882352
:1023000009F45BC0682F823879F40E944B0F81FF7B
:1023100054C069E380910201909103010E947D1BEA
:102320000E946B1A69E310C08338B1F40E944B0F0E
:1023300080FF43C063E580910201909103010E94F8
:102340007D1B0E946B1A63E580910201909103014D
:102350000E94881B0C946B1A843879F40E944B0FEE
:1023600082FF2BC067E480910201909103010E94DB
:102370007D1B0E946B1A67E4E7CF8CEF860F813AD2
:1023800018F380E2860F883048F4677081E001C05E
:10239000880F6A95EAF70E94A71ADCCF8BE5860FB3
:1023A000833020F480E090E00C946D0F685A653122
:1023B00020F480E090E00C94830F0895882321F0AE
:1023C0000E94A11A0C946B1A0895882321F00E9490
:1023D000A71A0C946B1A08954F925F926F927F9296
:1023E000BF92CF92DF92EF92FF920F931F93CF9302
:1023F000DF937C01D62FC72FFC01058102950F705A
:10240000128111110E94BE1A0E94641A882379F069
:10241000112369F080E28D0F883048F082E00E943D
:102420004D1A0E94641A91E0B82EB92601C0B12C51
:10243000CC2EC2948FE0C822D12CF601E859FF4F70
:102440000C94D22A8C2F807FCF70882311F0C295F4
:10245000C07F112399F0CC2309F4CFC180E28D0F06
:10246000883010F0D11104C08C2F0E94A11A03C033
:102470008C2F0E94B11A0E946B1ABFC18D2F0E942F
:102480007F11CC2309F4DEC180E28D0F883010F07B
:10249000D11104C08C2F0E94A71A03C08C2F0E9458
:1024A000B71A0E946B1ACEC18C2F807FCF708032FA
:1024B00011F0C295C07FDD2319F0D130C9F022C0E0
:1024C000112371F0002341F0013031F40E94D71A3A
:1024D0008C2B0E94D11AB6C10E94D71A8C2B46C1F0
:1024E000002319F0013009F4ADC10E94D41A18C0BC
:1024F000112321F0063008F0A5C10EC0053008F008
:10250000A1C10EC0112351F0002331F0F7018581E4
:1025100080FF73C18F7085838C2F28C101117EC10C
:102520008C2F2AC18C2F86958695837090E000971A
:1025300019F0019761F086C1112321F08D2F9C2F96
:10254000937002C080E090E00E946D0F8BC1112358
:1025500021F08D2F9C2F937002C080E090E00E94AC
:10256000830F80C11123F9F0D53F51F0D63F71F0B0
:10257000D43FA9F480911D0290911E0281600BC08E
:1025800080911D0290911E02826005C080911D0203
:1025900090911E02846090931E0280931D028D2FE5
:1025A0000E948E1E1EC0D53F51F0D63F71F0D43F21
:1025B000A9F480911D0290911E028E7F0BC0809124
:1025C0001D0290911E028D7F05C080911D02909189
:1025D0001E028B7F90931E0280931D028D2F0E94FE
:1025E000F61E0E947B1F3EC18C2F837009F050C0E5
:1025F000111134C18D2F829586958770880F880FB1
:102600009D2F9F70492E512C612C712C082E04C0D7
:10261000440C551C661C771C0A94D2F7D4FF14C0D6
:102620000FE010E020E030E0B901A80104C0440F41
:10263000551F661F771F8A95D2F7CB01BA016095A7
:1026400070958095909503C060E070E0CB01C695D1
:10265000C695C370D0E0C230D10561F0C330D1055A
:1026600081F06429752986299729219771F00E94A4
:102670008918F4C064297529862997290E949B1816
:10268000EDC00E948918C301B2010E947718E6C00C
:10269000112319F08C2F817001C08695882309F4CD
:1026A000DDC08D2F829586958770880F880F9D2FAE
:1026B0009F70492E512C612C712C082E04C0440CA3
:1026C000551C661C771C0A94D2F7D4FF14C00FE087
:1026D00010E020E030E0B901A80104C0440F551F0C
:1026E000661F771F8A95D2F7CB01BA016095709566
:1026F0008095909503C060E070E0CB01C695C695CB
:10270000C3704C2F50E04230510569F04330510501
:1027100089F064297529862997294130510571F07E
:102720000E944F199BC064297529862997290E9408
:10273000611994C00E944F19C301B2010E943D1952
:102740008DC08D2F90E0FC01E05EF109E531F105CF
:1027500008F04FC0E858FF4F0C94D22ADF708C2F3E
:102760008F71112331F00E94D6188D2F0E94DE1137
:1027700069C00E94F7188D2F0E94E51163C01123D4
:1027800041F0053008F05EC08C2F8F710E941C193B
:1027900059C0063008F056C0F7CF112339F08C2FFE
:1027A0008F710E94D6184EC01123C9F38C2F8F71E0
:1027B0000E94F71847C0112329F08C2F8F710E94B7
:1027C000C11840C00E94BC183DC0112349F0CF7110
:1027D0008C2F0E94D61863E08C2F0E94441A32C0BE
:1027E00081E00E944D1A023068F182E00E944D1A89
:1027F00029C0112331F0002391F28D2F0E948810FF
:1028000021C0002399F2D93349F45FEF67EE73E0FA
:10281000515060407040E1F700C000008D2F0E94D1
:102820007F1110C04C2F4F706D2FC7010E943606CC
:102830000E94EA1717C04C2F4F706D2FC7010E94DE
:10284000390610C088E0C816D10441F05CF0EAE017
:10285000CE1AD108F2E0CF16D10420F40E944B0F1B
:102860000E943406BB20F1F00E94401A80FD1AC07D
:10287000F70112820E943A1A0E94D618C7010E94DC
:1028800060140E943A1ADF91CF911F910F91FF902F
:10289000EF90DF90CF90BF907F906F905F904F90C0
:1028A0000C94F718DF91CF911F910F91FF90EF904B
:1028B000DF90CF90BF907F906F905F904F90089582
:1028C0000F931F93CF93DF93EC01888199812B8124
:1028D0003C81232BB9F09F3F11F48F3F99F0CE013B
:1028E0000E948D03882371F0688179818A810E941A
:1028F000171A8C010E9473190E947418B801CE0136
:102900000E94EC11DF91CF911F910F9108950E94C9
:10291000BE1A0E94CE1A80910201909103010E947A
:10292000931B0E946B1A0E9421200E947B1F80E053
:1029300090E00E946D0F80E090E00C94830F0E9465
:10294000AE1A0C9487140E940C1AE92FE295EF70CE
:10295000F0E03297EE30F105B0F4E357FF4F0C94FE
:10296000D22A803F91F018F4803E68F40EC0843F74
:1029700051F40BC0803E48F0813F29F406C093FB20
:10298000882780F9089580E0089581E00895CF9325
:10299000DF9300D000D01F92CDB7DEB70F900F901D
:1029A0000F900F900F90DF91CF910895CF93DF9309
:1029B00000D000D000D0CDB7DEB726960FB6F89481
:1029C000DEBF0FBECDBFDF91CF9108951F93CF9390
:1029D000DF93C091780116E080917901C81799F0D2
:1029E000D0E01C9FF0011D9FF00D1124E658FE4F12
:1029F0004081518162817381848195810E94D614C6
:102A00002196C770E9CFDF91CF911F910895409132
:102A1000AA015091AB016091AC017091AD01809120
:102A2000AE019091AF010C94D6148091AF018295C4
:102A30008F7009F054C08091AC01882309F44FC015
:102A400080917801A09179016091AA017091AB0108
:102A50004091AD015091AE01B6E08A1709F43FC034
:102A600090E041155105C1F17F3F11F46F3FA1F195
:102A7000B89FF001B99FF00D1124E658FE4F218157
:102A800072132AC02081621327C02281211124C021
:102A9000238134812417350710F421503109241B78
:102AA000350B283C3105C0F42091AF012F70206117
:102AB0002093AF0126E0289FF001299FF00D1124FB
:102AC000E158FE4F80818F70806180838AEA91E0B7
:102AD0000E9460140C94E61401968770BECF08958E
:102AE000CF92DF92EF92FF920F931F93CF93DF93DA
:102AF000CDB7DEB762970FB6F894DEBF0FBECDBF7D
:102B00008C0185E0F801DE011D9601900D928A95F9
:102B1000E1F7D8014C9111965C91119712966C9146
:102B200012971396CD90DC9014973091AA01709172
:102B3000AB018091AD019091AE01009709F46BC19A
:102B40007F3F19F43F3F09F466C1E090AC01EE20ED
:102B500009F4C0C02091AF01C816D90628F0F601CB
:102B6000E81BF90BCF0104C0809590958C0D9D1D3D
:102B7000FF24F394883C910578F0F12C207F09F034
:102B8000C6C07C2DD98AC88A89890E94C7148AEA5E
:102B900091E00E946014B1C0822F807F09F046C08E
:102BA000751314C0341312C0611110C02F7020614E
:102BB0002093AF010E9407158AEA91E00E946014F9
:102BC0008091AF01D80115968C932EC0CD2819F1B4
:102BD0005F3F11F44F3FF9F0F62E61111CC0809158
:102BE00078012091790136E0821709F45AC090E00B
:102BF000389FF001399FF00D1124E658FE4F718186
:102C0000571306C07081471303C07281711103C04E
:102C100001968770E9CFF62E662309F427C18091CB
:102C2000AF0181608093AF01F12C20C1751308C002
:102C3000341306C0611104C08091AF01D801C3C034
:102C40004D875E878D859E856A8B0E94A3146A8955
:102C50008823E1F16623D1F12091AF01822F829583
:102C60008F7090E0029774F08091AA019091AB016F
:102C700098878F831986DB86CA862C87CE010796B4
:102C80000E94601486E0F801AAEAB1E001900D927A
:102C90008A95E1F70E9415150E940715FF24F39409
:102CA000E5C04D875E878D859E850E940C1A292F71
:102CB00022952F7030E0223031050CF0CBC09F7090
:102CC00009F0C5C0805E883008F4D0C0C8010E94F9
:102CD0006014E4CFC816D90608F453C0F601E81B07
:102CE000F90BCF01883C910508F450C0F12C7C2DE4
:102CF000D98AC88A89890E94C714EAEAF1E086E085
:102D0000DF011D928A95E9F70E940715AFC0751380
:102D100014C0341312C0611110C08091AF01F801CA
:102D20008583C8010E94601486E0EAEAF1E0DF01D1
:102D30001D928A95E9F7FE2C99C04D875E878D8597
:102D40009E856A8B0E94A3146A89882309F4BECFEA
:102D5000662309F4BBCF2091AF01822F82958F703B
:102D600090E002970CF48ECF8091AA019091AB0174
:102D70009A8389831B82DD82CC822E83CE010196C9
:102D80007FCF809590958C0D9D1DACCFF62E662340
:102D900009F49CCF75132EC034132CC02091AF01C1
:102DA00020FD1FC0822F82958F70D9F0D801159613
:102DB0002C9315978F3049F08F5F982F9295907FC5
:102DC000822F8F70892B15968C93C8010E946014F6
:102DD00086E0F801AAEAB1E001900D928A95E1F748
:102DE00093CF86E0F801AAEAB1E001900D928A95AE
:102DF000E1F73CC04D875E878D859E850E94A314B8
:102E0000811140CF8091AF0181608093AF01C801F3
:102E10000E9460142BC0662309F458CF4D875E874B
:102E20008D859E850E94A314F82E882309F44ECF29
:102E300086E0F801AAEAB1E001900D928A95E1F7E7
:102E40008AEA91E00E9482100E9415155DCF8111DF
:102E500039CF0CC0243031050CF038CF9F7009F405
:102E600031CFF8019581907F09F02CCF8F2D62969C
:102E70000FB6F894DEBF0FBECDBFDF91CF911F918B
:102E80000F91FF90EF90DF90CF9008951F93CF9315
:102E9000DF93CDB7DEB72C970FB6F894DEBF0FBE29
:102EA000CDBF4F83588769877A878B879C87CE01F0
:102EB00007960E947015882369F08F8198852A856E
:102EC0003B85232BF1F19F3F09F063C08F3F09F051
:102ED00060C037C086E0FE013796DE011196019092
:102EE0000D928A95E1F76F817885EA85FB853097A9
:102EF00041F17F3F11F46F3F21F12091790130E0E2
:102F0000C9010196877099274091780150E0841794
:102F1000950709F447C069837A83FD83EC8396E0C3
:102F2000929FD001939FB00D1124A658BE4FFE0171
:102F3000319601900D929A95E1F7809379010E9464
:102F4000E61416E080917801909179018917C1F11A
:102F5000189FC001112486589E4F0E947015882327
:102F600079F1E09178011E9FF0011124E658FE4F9F
:102F70004081518162817381848195810E94D61440
:102F80008091780190E0019687709927809378016D
:102F9000D9CF4F81588569857A858B859C850E941C
:102FA000D614CFCF0E949F1410927901109278010D
:102FB000EAEAF1E086E0DF011D928A95E9F7C1CFE8
:102FC0002C960FB6F894DEBF0FBECDBFDF91CF9128
:102FD0001F910895EF92FF920F931F93CF93DF936A
:102FE0008C01892B09F46CC0F12CEE24E394E801E8
:102FF0002196F8018491843740F4843008F051C060
:10300000813081F0823019F15BC0853709F444C00A
:10301000A8F19CE7980F903708F052C08F770E9474
:103020007F1141C00E5F1F4FFE01C49180E28C0FE3
:10303000883048F4C7708E2D01C0880FCA95EAF712
:103040000E94C11A14C08C2F0E9488102DC00E5FE0
:103050001F4FFE01C49180E28C0F883058F4C77076
:103060008E2D01C0880FCA95EAF70E94C71A0E94E8
:103070006B1A1AC08C2F0E947F1116C00E5F1F4F53
:10308000FE01C491CC2381F08FE99FE00197F1F715
:1030900000C00000C150F6CF0E5F1F4FFE01F4903C
:1030A00003C00E9488108E018F2D882309F49FCFC2
:1030B000EFE9FFE03197F1F700C000008150F5CF54
:1030C000DF91CF911F910F91FF90EF900895089598
:1030D0000E9467186093BE017093BF018093C00186
:1030E0009093C1010C94871408950C9468180F9361
:1030F0001F930091BE011091BF012091C00130913A
:10310000C101602B712B822B932B1F910F910C947B
:1031100068180F931F930091BE011091BF01209179
:10312000C0013091C10160237123822393231F9139
:103130000F910C9468180F931F930091BE0110918A
:10314000BF012091C0013091C10160277127822702
:1031500093271F910F910C94681808950C94AD1843
:103160000E94AE186093BA017093BB018093BC01BA
:103170009093BD010C94871460E070E0CB010C9437
:10318000B0180F931F9341E050E060E070E08A01B7
:103190009B0104C0000F111F221F331F8A95D2F715
:1031A000C901B8011F910F910C94B0180F931F9390
:1031B00041E050E060E070E004C0440F551F661F1E
:1031C000771F8A95D2F78091BA019091BB01A091A7
:1031D000BC01B091BD018A019B01082B192B2A2B40
:1031E0003B2BC901B8011F910F910C94B0180F939C
:1031F0001F9341E050E060E070E004C0440F551FB1
:10320000661F771F8A95D2F7409550956095709507
:103210008091BA019091BB01A091BC01B091BD0118
:103220008A019B01082319232A233B23C901B801E2
:103230001F910F910C94B0180F931F9341E050E031
:1032400060E070E004C0440F551F661F771F8A9529
:10325000D2F78091BA019091BB01A091BC01B091CD
:10326000BD018A019B01082719272A273B27C9018D
:10327000B8011F910F910C94B0180F931F930091F8
:10328000BA011091BB012091BC013091BD01602BAE
:10329000712B822B932B1F910F910C94B0180F93CD
:1032A0001F930091BA011091BB012091BC01309194
:1032B000BD0160237123822393231F910F910C94EE
:1032C000B0180F931F930091BA011091BB01209188
:1032D000BC013091BD0160277127822793271F9180
:1032E0000F910C94B0180895990F990F890FA82F7A
:1032F000A695A695A695877051E001C0550F8A95B1
:10330000EAF785E0A89FD001112420E030E070E0CA
:10331000F901EA0FFB1FE055FE4F4081CB01022E61
:1033200002C0969587950A94E2F781709927819556
:1033300084278523842780832F5F3F4F25303105E5
:1033400039F70895990F990F890F682F669566953B
:103350006695982F977085E0689FB001112440E032
:1033600050E080E0FA01E60FF71FE055FE4F2081A4
:1033700030E0092E02C0369527950A94E2F72170B5
:103380003327042E01C0220F0A94EAF7822B4F5FE5
:103390005F4F4530510531F70895CF92DF92EF929C
:1033A000FF920F931F93CF93DF938C01C090BE01C8
:1033B000D090BF01E090C001F090C1018091BA01AE
:1033C0009091BB01A091BC01B091BD01C82AD92A3E
:1033D000EA2AFB2ACFE1D0E0D701C6010C2E04C0B7
:1033E000B695A795979587950A94D2F780FF06C062
:1033F000B8018C2F0E945606019721F4219760F79F
:1034000080E001C08C2FDF91CF911F910F91FF9031
:10341000EF90DF90CF900895CF93DF93EC010E945F
:10342000CD19BE010E945606DF91CF9108951F93DA
:10343000CF93DF93EB0190917701992321F0CB019A
:103440000E940C1A13C0882349F0CB010E94CD19A9
:10345000182F682FCE010E94741904C0CB010E945E
:10346000A219182FBE01812F0E945606DF91CF911D
:103470001F9108958091C201859585958595089540
:103480008091C2018770089598E0899F900111246E
:10349000262B2093C2010C94D6182091C20180954E
:1034A00082238093C201982F977069F430E0482FEF
:1034B000082E000C550B2417350729F085958595A6
:1034C00085950C94F71808959091C201977081E04A
:1034D00009F480E00895E0910201F09103018091E8
:1034E000E6018083E0910201F091030190818091D7
:1034F000E501892B8083E0910201F0910301908125
:103500008091E401892B80838091C301882381F01D
:10351000E0910201F09103019081892B80838091D9
:103520000201909103010E94211B81111092C3019D
:1035300080910201909103010C94570F8091E60154
:1035400008959091E601892B8093E6010895809576
:103550009091E60189238093E60108951092E60197
:1035600008959091E501892B8093E5010895809558
:103570009091E50189238093E50108951092E5017A
:1035800008959091E401892B8093E401089580953A
:103590009091E40189238093E40108951092E4015D
:1035A00008958093C30108951092C30108958091F6
:1035B000C30108956DEE7EEF80E090E00E940A2B3B
:1035C00060E082E090E00E94EC2A60E083E090E01E
:1035D0000E94EC2A60E084E090E00E94EC2A60E027
:1035E00085E090E00E94EC2A40E050E0BA0188E0DB
:1035F00090E00C94FE2A80E090E00E94E62A21E010
:103600008D3E9E4F09F020E0822F089582E090E0E9
:103610000C94D82A682F82E090E00C94EC2A83E086
:1036200090E00C94D82A682F83E090E00C94EC2A68
:1036300084E090E00C94D82A682F84E090E00C9409
:10364000EC2AFC0131969C01205E3F4F80E0919175
:1036500091118F5FE217F307D1F708959C01FC01E8
:1036600032969FEF80E04191461789F09F3F19F411
:10367000411101C0982F8F5F8E31A9F79F3F39F01C
:10368000F901E90FF11D97FDFA95628308950895F8
:10369000FC01329680962081261301C0108231965B
:1036A000E817F907C1F70895262F26952695269540
:1036B0002F3168F4FC01E20FF11D677021E030E06A
:1036C00001C0220F6A95EAF78181282B2183089592
:1036D000262F2695269526952F3170F4FC01E20FB2
:1036E000F11D677021E030E001C0220F6A95EAF712
:1036F000209581812823218308952091140122237C
:1037000029F02091230227FD0C94541B0C942E1BAE
:1037100020911401222329F02091230227FD0C94EB
:10372000681B0C94481BFC01319680961192E81797
:10373000F907E1F7089508950C949B1B80912902E5
:10374000843049F11092E80120E488E190E00FB65E
:10375000F894A895809360000FBE2093600080E0ED
:103760000E9434060E949C1B83B7817F846083BFC4
:1037700083B7816083BF7894889583B78E7F83BF3A
:103780000FB6F894A89580916000886180936000DE
:10379000109260000FBE089508950895CF930E947F
:1037A000CC1B0E943B090E94CD1BC0E08C2F0E94C5
:1037B000E209811104C0CF5FC430C1F701C081E0CC
:1037C000CF91089508950C94E21B0E949F140E94CB
:1037D0004B0F0E9434060C94E31B1F920F920FB6FE
:1037E0000F9211248F939F93AF93BF938091E80121
:1037F000811113C080911F0290912002A09121029B
:10380000B09122024196A11DB11D80931F02909399
:103810002002A0932102B0932202BF91AF919F9109
:103820008F910F900FBE0F901F90189582E084BD6E
:1038300093E095BD9AEF97BD80936E0008952FB7E2
:10384000F89480911F0290912002A0912102B091E2
:1038500022022FBF0895CF92DF92EF92FF920F9333
:103860001F932FB7F89440911F025091200260914E
:103870002102709122022FBF6A017B01EE24FF24F6
:103880008C0120E030E0C016D106E206F30610F409
:10389000415051099A01281B390BC9011F910F9101
:1038A000FF90EF90DF90CF90089578941F920F9241
:1038B0000FB60F9211248F939F93AF93BF93809174
:1038C0001F0290912002A0912102B0912202019644
:1038D000A11DB11D80931F0290932002A09321028D
:1038E000B0932202BF91AF919F918F910F900FBE25
:1038F0000F901F90189581E08093E00080E2809304
:10390000D8001092C9008FE19EE40197F1F700C042
:10391000000087E090EBDC01809332029093330249
:10392000A0933402B09335029CE088E10FB6F8947E
:10393000A895809360000FBE90936000FFCFCF9258
:10394000DF92EF92FF920F931F93CF93C0E0E82E88
:10395000F12C8C2F0E94E20900E010E0C82ED12C3F
:10396000C601002E02C0959587950A94E2F780FD66
:1039700006C00F5F1F4F0430110591F70AC0602F7A
:103980007C2F80E00E943A06E816F90691F781E064
:1039900004C0CF5FC430E9F680E0CF911F910F9152
:1039A000FF90EF90DF90CF900895CF93C82F8CE2D7
:1039B0000E949F1C882321F08C2FCF910C949F1C78
:1039C00080E0CF910895CF930E94FB1A811102C02D
:1039D0000E94DA1AC5E6C15049F00E943B098FE304
:1039E0009CE90197F1F700C00000F5CF89E20E9441
:1039F000D51C81110FC18AE20E94D51C81110E9441
:103A0000DA1A85E00E94D51C81110E947B1C0E945D
:103A1000061B8093E70187E00E94D51C8823A9F14B
:103A20008BE10E94D51C882351F08091E70181FB36
:103A3000222720F991E0922790FB81F90EC08EE0B9
:103A40000E94D51C882361F08091E70182FB222728
:103A500020F991E0922790FB82F98093E70115C04D
:103A600080E10E94D51C9091E701882341F093FBEF
:103A7000222720F981E0822780FB93F904C0892F57
:103A8000809580FB90F99093E7018091E7010E9477
:103A90000A1B0E94181B90E090932402809323023B
:103AA00080EE0E94D51C882341F080912302982F3C
:103AB000909590FB80F98093230289E30E94D51CA6
:103AC000882359F08091230281FB222720F991E07D
:103AD000922790FB81F98093230282EE0E94D51CED
:103AE000882359F08091230282FB222720F991E05C
:103AF000922790FB82F98093230286EE0E94D51CC8
:103B0000882359F08091230283FB222720F991E03A
:103B1000922790FB83F98093230283EE0E94D51CA9
:103B2000882359F08091230284FB222720F991E019
:103B3000922790FB84F98093230285E30E94D51C91
:103B4000882359F08091230285FB222720F991E0F8
:103B5000922790FB85F98093230281E30E94D51C74
:103B6000882359F08091230286FB222720F991E0D7
:103B7000922790FB86F98093230281E10E94D51C55
:103B8000882359F08091230287FB222720F991E0B6
:103B9000922790FB87F980932302809123020E9451
:103BA0001C1B87E20E94D51CC82F8EE10E94D51CE9
:103BB0008111C2608FE10E94D51C8111C46080E236
:103BC0000E94D51C8111C86081E20E94D51C811120
:103BD000C06182E20E94D51C8111C06283E20E9412
:103BE000D51C8111C06484E20E94D51C882311F089
:103BF000C06802C0CC2329F08C2F0E94131B6C2FAD
:103C000003C00E940F1B682F70E080E090E0CF910E
:103C10000C947518CF9108958091EB0180FF0BC033
:103C20006091070185E0689FB00111247595679543
:103C3000759567952BC081FF09C06091070185E0EC
:103C4000689FB00111247595679520C082FF07C059
:103C50006091070185E0689FB001112417C0909121
:103C6000EC019923D1F060910601961788F7209115
:103C7000070185E0289F90011124929FA001939F46
:103C8000500D112470E0CA010E94BE2A60387105EF
:103C900040F46115710539F002C065E070E0862FCF
:103CA00008958FE7089581E008958091EB0180FFEA
:103CB00008C06091050170E07595679575956795E9
:103CC00021C081FF06C06091050170E07595679580
:103CD00019C082FF04C06091050170E010C090918E
:103CE000EC019923C1F0609104019617A0F780912F
:103CF0000501899FC001112470E00E94BE2A60382E
:103D0000710528F46115710521F0862F08958FE75C
:103D1000089581E0089561E070E0F4CF803F21F4E0
:103D20000E940C1E819504C0813F29F40E940C1E44
:103D30008093EF010895823F21F40E940C1E81952B
:103D400004C0833F29F40E940C1E8093EE01089565
:103D5000893F19F40E94551E05C08A3F31F40E9424
:103D6000551E81958093F00108958B3F21F40E94A8
:103D7000551E819504C08C3F29F40E94551E8093E6
:103D8000F1010895843F21F48091ED01816017C015
:103D9000853F21F48091ED01826011C0863F21F4BE
:103DA0008091ED0184600BC0873F21F48091ED018B
:103DB000886005C0883F31F48091ED018061809377
:103DC000ED0108958D3F21F48091EB0181600BC0DE
:103DD0008E3F21F48091EB01826005C08F3F29F472
:103DE0008091EB0184608093EB010895803F39F46A
:103DF0008091EF0187FF6CC01092EF0169C0813F95
:103E000029F48091EF011816BCF362C09091EE0185
:103E1000823F29F497FF5CC01092EE0159C0833FA6
:103E200019F41916CCF354C0893F41F48091F00184
:103E300018160CF04DC01092F0014AC08A3F29F4C8
:103E40008091F00187FF44C0F6CF8B3F39F4809119
:103E5000F10187FF3DC01092F1013AC08C3F29F477
:103E60008091F1011816BCF333C0843F21F4809196
:103E7000ED018E7F17C0853F21F48091ED018D7F8C
:103E800011C0863F21F48091ED018B7F0BC0873FED
:103E900021F48091ED01877F05C0883F31F4809146
:103EA000ED018F7E8093ED0113C08D3F21F4809151
:103EB000EB018E7F0BC08E3F21F48091EB018D7F53
:103EC00005C08F3F29F48091EB018B7F8093EB013C
:103ED0008091EE0181110EC08091EF0181110AC025
:103EE0008091F001811106C08091F101811102C021
:103EF0001092EC0108958DEE91E00E94620F0E94F5
:103F00001F1C9093EA018093E90108951F93CF93BA
:103F1000DF938091E9019091EA010E942B1CAC0192
:103F20009091EC01992321F02091080130E006C026
:103F3000209109018AE0289F90011124421753071C
:103F400008F47BC08091EE01C091EF01D091F001A7
:103F50001091F101811107C0C1116BC0D11169C06D
:103F6000111167C06AC09F3F19F09F5F9093EC01E9
:103F7000181624F40E940C1E8093EE018091EE012D
:103F800087FF05C00E940C1E81958093EE011C16D0
:103F900024F40E940C1E8093EF018091EF0187FFB3
:103FA00005C00E940C1E81958093EF013091EE01B7
:103FB0003323E1F02091EF012223C1F045EB3403DC
:103FC000C0011124892F990F990B009709F481E002
:103FD0008093EE0135EB2303C0011124892F990F43
:103FE000990B009709F481E08093EF011D1624F4EA
:103FF0000E94551E8093F0018091F00187FF05C05B
:104000000E94551E81958093F001111624F40E94A0
:10401000551E8093F1018091F10187FF05C00E9438
:10402000551E81958093F101DF91CF911F910C94E2
:104030007B1F9F3F09F099CFA1CFDF91CF911F91B7
:104040000895EDEEF1E085E0DF011D928A95E9F734
:104050001092EC011092EB010895809112020895E4
:104060000F931F93CF93DF9300D01F92CDB7DEB78E
:104070008C010E94A822823011F0843019F593E05F
:1040800099831B830A839093E9008FEF9091E80056
:10409000815095FD06C095ED9A95F1F700008111CC
:1040A000F5CF8091E80085FF0DC040E050E063E06F
:1040B00070E0CE0101960E94C5228091E8008E77C3
:1040C0008093E8000F900F900F90DF91CF911F9198
:1040D0000F910895CF93DF9300D01F92CDB7DEB735
:1040E00020912902243031F522E02983805891095A
:1040F0009B838A8383E08093E9008FEF9091E800AF
:10410000815095FD06C095ED9A95F1F7000081115B
:10411000F5CF8091E80085FF0DC040E050E063E0FE
:1041200070E0CE0101960E94C5228091E8008E7752
:104130008093E8000F900F900F90DF91CF9108953A
:10414000CF93DF93EC010E94A822823011F08430DB
:10415000F9F482E08093E9009FEF8091E8009150AC
:1041600085FD06C085ED8A95F1F700009111F5CF28
:104170008091E80085FF0CC040E050E065E070E011
:10418000CE010E94C5228091E8008E778093E800DE
:10419000DF91CF910895CF93DF93EC010E94A82285
:1041A000823019F0843009F047C0809114018823CF
:1041B000E1F08091230287FF18C084E08093E9003A
:1041C0008FEF9091E800815095FD06C095E19A959A
:1041D000F1F700008111F5CF8091E80085FF2CC038
:1041E00040E050E060E270E017C081E08093E900B9
:1041F0008FEF9091E800815095FD06C095ED9A955E
:10420000F1F700008111F5CF8091E80085FF14C01F
:1042100040E050E068E070E0CE010E94C52280914D
:10422000E8008E778093E80080E2FE01A2EFB1E023
:1042300001900D928A95E1F7DF91CF9108958091D9
:104240002802811109C00E945A240E94B72480913B
:10425000E20084608093E20008951092280208959D
:10426000089508950C94E51B42E061EC81E00E9402
:10427000D42342E061EC82E00E94D42342E061EC6E
:1042800083E00E94D42342E261EC84E00C94D423C6
:1042900080912B02833009F455C030F4813071F0E5
:1042A000823009F48EC008958A3009F47AC08B30C8
:1042B00009F460C0893009F09CC020C080912A02B6
:1042C000813A09F096C08091E800877F8093E800EA
:1042D00080912E0290912F02892B21F460E282EFCF
:1042E00091E003C060E080E090E070E00E94102365
:1042F0008091E8008B778093E800089580912A02EE
:10430000813209F076C080912E0290912F020097A1
:1043100019F0039709F06DC08091E800877F8093C2
:10432000E8008091E80082FD05C08091290281119A
:10433000F8CF5FC08091F100809312028091E80075
:104340008B7753C080912A02813A09F052C0809144
:104350002E0290912F02892B09F04BC08091E8002A
:10436000877F8093E8008091E80080FFFCCF8091F8
:10437000140136C080912A028132D9F580912E0233
:1043800090912F02892BA9F58091E800877F809377
:10439000E8000E94092480912C02809314010C945F
:1043A0009F1480912A02813221F58091E800877F55
:1043B0008093E8000E94092480912D0280931302CB
:1043C000089580912A02813AA1F48091E800877FC4
:1043D0008093E8008091E80080FFFCCF8091130279
:1043E0008093F1008091E8008E778093E8000C9430
:1043F0000924089584B7877F84BF0FB6F894A895E1
:1044000080916000886180936000109260000FBE10
:1044100080E880936100109261000E949A0F0E94D0
:104420005A240E94B7248091E20084608093E200C5
:1044300078940E9446270E949E0F8AE091E00E9495
:10444000460F80912902853069F40E949E1B80915D
:1044500027028823B1F30E94CE1B882391F30E9488
:10446000AF22EFCF0E94AC0F0E94D50EEACF0C9482
:104470003922292F332723303105C9F064F4213044
:10448000310581F02230310509F049C08DE690E018
:1044900026EE34E048C02132310521F122323105C7
:1044A00071F13DC082E190E023E535E03CC0992701
:1044B0008130910571F02CF4892B89F5E2EEF4E05E
:1044C0000DC08230910541F0039749F5ECEAF4E024
:1044D00005C0E4ECF4E002C0E2EBF4E0849190E08B
:1044E0009F0121C064307105D0F4660F771FFB0176
:1044F000E75DFE4F2081318189E090E014C0643097
:10450000710568F4FB01EE0FFF1FEF5DFE4F208188
:104510003181FB01E35EFE4F808190E004C080E0CA
:1045200090E020E030E0FA0131832083089508957F
:10453000CF93C82F0E949722C0931402CF91089561
:1045400080912902843011F081E0089582E008957D
:1045500080911402811102C00C94A022089580E180
:1045600089BD82E189BD09B400FEFDCF8091D800EC
:104570008F7D8093D8008091E00082608093E0007E
:104580008091E00081FDFCCF0895CF92DF92EF9201
:10459000FF920F931F93CF93DF93EC018B016A017E
:1045A0000E942824811133C0C114D10439F0F601CE
:1045B00080819181081B190BC80FD91FE12CF12CA8
:1045C0000115110519F18091E80085FD16C0809153
:1045D000E8008E778093E800C114D10449F0F60119
:1045E00080819181E80EF91EF182E08285E00FC0A2
:1045F0000E942824882321F30AC089918093F10026
:1046000001501109FFEFEF1AFF0ADACF80E0DF91C6
:10461000CF911F910F91FF90EF90DF90CF90089571
:1046200020913002309131022617370748F061158A
:10463000710539F42091E8002E772093E80001C03D
:10464000B90140E061157105A9F1209129022223E9
:1046500009F443C0253009F442C02091E80023FD4D
:1046600040C02091E80022FD32C02091E80020FFE8
:10467000E9CF4091F3002091F20030E0342BFC01AF
:10468000CF016115710559F02830310540F4819151
:104690008093F100615071092F5F3F4FF1CF41E0EE
:1046A0002830310509F040E02091E8002E77209372
:1046B000E800C8CF4111C9CF0AC0809129028823E0
:1046C00061F0853061F08091E80083FD0AC080913F
:1046D000E80082FFF2CF80E0089582E0089583E051
:1046E000089581E00895209130023091310226171B
:1046F000370748F06115710539F42091E8002E77ED
:104700002093E80001C0B901FC0120E061157105AA
:1047100091F180912902882309F440C0853009F481
:104720003FC08091E80083FD3DC08091E80082FD9C
:104730002FC08091E80080FFE9CF2091F3008091A5
:10474000F20090E0922B6115710559F088309105C7
:1047500040F424912093F100319661507109019643
:10476000F2CF21E0089709F020E08091E8008E77F1
:104770008093E800CBCF2111CCCF0AC080912902D1
:10478000882361F0853061F08091E80083FD0AC0E4
:104790008091E80082FFF2CF80E0089582E00895E2
:1047A00083E0089581E00895982F973058F590930D
:1047B000E900981739F07091EC002091ED005091CC
:1047C000F00003C0242F762F50E021FF19C0309154
:1047D000EB003E7F3093EB003091ED003D7F309356
:1047E000ED003091EB0031603093EB007093EC0002
:1047F0002093ED005093F0002091EE0027FF07C0BA
:104800009F5FD3CF8F708093E90081E0089580E0AF
:10481000089580912A0287FF11C08091E80082FDEF
:1048200005C0809129028111F8CF11C08091E80064
:104830008B770BC080912902882349F08091E80092
:1048400080FFF8CF8091E8008E778093E80008958C
:104850002091E4003091E50095E64091EC00842F32
:10486000817040FF22C08091E80080FD1CC08091D3
:104870002902882391F0853091F08091EB0085FD2D
:1048800010C04091E4005091E5004217530729F30E
:104890009A01915011F784E0089582E0089583E031
:1048A000089581E0089580E008954091E80042FF76
:1048B000DECF08950E94C8240E94D024E0EEF0E0EC
:1048C000808181608083E8EDF0E080818F77808354
:1048D00019BCA7EDB0E08C918E7F8C9380818F7E88
:1048E00080831092280208950F931F93CF93DF9334
:1048F0000E94C8240E94D024C8EDD0E088818F7720
:10490000888388818068888388818F7D888319BCAB
:10491000109229021092250210922702109226026C
:1049200000EE10E0F80180818B7F808388818160B8
:10493000888342E060E080E00E94D423E1EEF0E072
:1049400080818E7F8083E2EEF0E0808181608083D1
:10495000808188608083F80180818E7F8083888158
:1049600080618883DF91CF911F910F910895E8EDC9
:10497000F0E080818F7E8083E7EDF0E080818160D0
:10498000808384E082BF81E0809328020C947424A9
:10499000E8EDF0E080818E7F80831092E200089540
:1049A0001092DA001092E10008951F920F920FB654
:1049B0000F9211242F933F934F935F936F937F93A5
:1049C0008F939F93AF93BF93EF93FF938091E100F9
:1049D00082FF0BC08091E20082FF07C08091E1005E
:1049E0008B7F8093E1000E9445278091DA0080FF51
:1049F0001FC08091D80080FF1BC08091DA008E7F9D
:104A00008093DA008091D90080FF0DC080E189BDDC
:104A100082E189BD09B400FEFDCF81E080932902C7
:104A20000E941F2105C019BC109229020E942D214D
:104A30008091E10080FF19C08091E20080FF15C0E5
:104A40008091E2008E7F8093E2008091E20080619D
:104A50008093E2008091D80080628093D80019BCD6
:104A600085E0809329020E9431218091E10084FF3A
:104A700030C08091E20084FF2CC080E189BD82E1DA
:104A800089BD09B400FEFDCF8091D8008F7D809351
:104A9000D8008091E1008F7E8093E1008091E20058
:104AA0008F7E8093E2008091E20081608093E2003B
:104AB00080912502882311F084E007C08091E300F3
:104AC00087FD02C081E001C083E0809329020E943B
:104AD00032218091E10083FF29C08091E20083FFB1
:104AE00025C08091E100877F8093E10082E0809380
:104AF0002902109225028091E1008E7F8093E100CF
:104B00008091E2008E7F8093E2008091E2008061DC
:104B10008093E20042E060E080E00E94D423809134
:104B2000F00088608093F0000E943021FF91EF91A7
:104B3000BF91AF919F918F917F916F915F914F91B5
:104B40003F912F910F900FBE0F901F9018951F92BD
:104B50000F920FB60F9211242F933F934F935F93B1
:104B60006F937F938F939F93AF93BF93CF93DF9375
:104B7000EF93FF93C091E900CF708091EC00D82FA4
:104B8000D17080FDD0E81092E9008091F000877F1D
:104B90008093F00078940E94EB251092E9008091B8
:104BA000F00088608093F000CD2BCF70C093E900B7
:104BB000FF91EF91DF91CF91BF91AF919F918F9135
:104BC0007F916F915F914F913F912F910F900FBE09
:104BD0000F901F9018951F93CF93DF93CDB7DEB73B
:104BE000AA970FB6F894DEBF0FBECDBFEAE2F2E09F
:104BF00088E08E0F9091F10091938E13FBCF0E946D
:104C000048218091E80083FF28C180912A02909179
:104C10002B02492F50E04A30510508F01EC1FA011D
:104C2000E556FF4F0C94D22A803821F0823809F0E3
:104C300014C108C08091260290912702992389F01F
:104C400082600FC080912E028F70873008F005C1FE
:104C50008093E9008091EB0085FB882780F9109212
:104C6000E9009091E800977F9093E8008093F1002D
:104C70001092F100D0C0282F2D7F09F0EEC08823BC
:104C800019F0823061F0E9C080912C02813009F086
:104C9000E4C0933009F080E0809327022EC0809119
:104CA0002C0281112AC080912E028F702FEF280FC5
:104CB000263008F0D2C08093E9002091EB0020FF5D
:104CC0001CC0933021F48091EB00806214C090915D
:104CD000EB0090619093EB0021E030E0A90102C06D
:104CE000440F551F8A95E2F74093EA001092EA00BC
:104CF0008091EB0088608093EB001092E900809136
:104D0000E800877F8093E8000E940924A6C08111F3
:104D1000A4C010912C021F778091E3008078812B32
:104D20008093E3008091E800877F8093E8000E94F1
:104D300009248091E80080FFFCCF8091E300806827
:104D40008093E300111102C082E001C083E08093F0
:104D5000290283C08058823008F07FC080912C02E5
:104D600090912D028C3D53E0950779F583E08A837D
:104D70008AE289834FB7F894DE01139620E03EE083
:104D800051E2E32FF0E050935700E49120FF03C07D
:104D9000E295EF703F5FEF708E2F90E0EA3010F0F9
:104DA000C79601C0C0968D939D932F5F243149F71C
:104DB0004FBF8091E800877F8093E8006AE270E04F
:104DC000CE0101960E94102315C060912E027091B1
:104DD0002F02AE014F5F5F4F0E943722BC01892B2B
:104DE000E1F19091E800977F9093E80089819A81A2
:104DF0000E9473238091E8008B778093E8002DC098
:104E0000803859F58091E800877F8093E800809191
:104E100025028093F1008091E8008E7773CF811195
:104E20001CC090912C029230C0F48091E800877FE2
:104E30008093E800909325020E9409248091250226
:104E4000811106C08091E30087FD02C081E001C0AE
:104E500084E0809329020E9434218091E80083FF3E
:104E60000AC08091E800877F8093E8008091EB0082
:104E700080628093EB00AA960FB6F894DEBF0FBE57
:104E8000CDBFDF91CF911F9108950895CF93809169
:104E900029028823A1F0C091E900CF709091EC0025
:104EA000892F817090FD80E8C82B1092E9008091D5
:104EB000E80083FD0E94EB25CF70C093E900CF91FD
:104EC00008955058BB27AA270E9479270C942429BB
:104ED0000E94162938F00E941D2920F039F49F3FC6
:104EE00019F426F40C94EC280EF4E095E7FB0C94EE
:104EF000E628E92F0E94352958F3BA17620773078D
:104F00008407950720F079F4A6F50C9457290EF440
:104F1000E0950B2EBA2FA02D0B01B90190010C01C9
:104F2000CA01A0011124FF27591B99F0593F50F4E1
:104F3000503E68F11A16F040A22F232F342F442739
:104F4000585FF3CF469537952795A795F040539531
:104F5000C9F77EF41F16BA0B620B730B840BBAF001
:104F60009150A1F0FF0FBB1F661F771F881FC2F76C
:104F70000EC0BA0F621F731F841F48F48795779580
:104F80006795B795F7959E3F08F0B0CF9395880F3A
:104F900008F09927EE0F9795879508950E94E227CC
:104FA0000C9424290E941D2958F00E94162940F0D3
:104FB00029F45F3F29F00C94E62851110C945829EC
:104FC0000C94EC280E94352968F39923B1F35523FA
:104FD00091F3951B550BBB27AA276217730784070C
:104FE00038F09F5F5F4F220F331F441FAA1FA9F3A2
:104FF00035D00E2E3AF0E0E832D091505040E69590
:10500000001CCAF72BD0FE2F29D0660F771F881FF0
:10501000BB1F261737074807AB07B0E809F0BB0BE3
:10502000802DBF01FF2793585F4F3AF09E3F5105F7
:1050300078F00C94E6280C9458295F3FE4F3983EEE
:10504000D4F3869577956795B795F7959F5FC9F7E0
:10505000880F911D9695879597F90895E1E0660F61
:10506000771F881FBB1F621773078407BA0720F0DA
:10507000621B730B840BBA0BEE1F88F7E095089543
:1050800029F416F00C94E6280C9457290C94EC287B
:105090000E943D29A8F39638A0F707F80F92E894EC
:1050A0002BE33AEA48EB5FE70E94EA290F920F925E
:1050B0000F924DB75EB70F920E94A029EAE4F1E08B
:1050C0000E94EF284F915F91EF91FF91E595EE1FC0
:1050D000FF1F49F0FE57E0684427EE0F441FFA9582
:1050E000E1F74195550B0E946A290F9007FE0C9439
:1050F0005E2908950E943D2988F09F5798F0B92FA6
:105100009927B751B0F0E1F0660F771F881F991FFC
:105110001AF0BA95C9F714C0B13091F00E9457291E
:10512000B1E008950C945729672F782F8827B85F2E
:1051300039F0B93FCCF3869577956795B395D9F754
:105140003EF490958095709561957F4F8F4F9F4F5E
:105150000895E89409C097FB3EF49095809570956A
:1051600061957F4F8F4F9F4F9923A9F0F92F96E9B3
:10517000BB279395F695879577956795B795F11128
:10518000F8CFFAF4BB0F11F460FF1BC06F5F7F4FC5
:105190008F4F9F4F16C0882311F096E911C07723D7
:1051A00021F09EE8872F762F05C0662371F096E8E0
:1051B000862F70E060E02AF09A95660F771F881FAF
:1051C000DAF7880F9695879597F9089597F99F676D
:1051D00080E870E060E008959FEF80EC0895DF9331
:1051E000CF931F930F93FF92EF92DF927B018C017D
:1051F000689406C0DA2EEF010E94E729FE01E894C8
:10520000A5912591359145915591A6F3EF010E9405
:105210007927FE019701A801DA9469F7DF90EF90F2
:10522000FF900F911F91CF91DF91089500240A9470
:105230001616170618060906089500240A94121671
:105240001306140605060895092E0394000C11F4A4
:10525000882352F0BB0F40F4BF2B11F460FF04C051
:105260006F5F7F4F8F4F9F4F089557FD9058440FAA
:10527000551F59F05F3F71F04795880F97FB991FB5
:1052800061F09F3F79F08795089512161306140672
:10529000551FF2CF4695F1DF08C0161617061806FF
:1052A000991FF1CF86957105610508940895E894DA
:1052B000BB2766277727CB0197F908959B01AC019F
:1052C00060E070E080E89FE30C94CE270C94E62821
:1052D0000C94492A0E943D29D8F39923C9F3940FCD
:1052E000511DA3F39150504094F059F0882332F0AF
:1052F000660F771F881F91505040C1F79E3F5105A0
:105300002CF7880F911D9695879597F908955F3F23
:10531000ACF0983E9CF0BB27869577956795B7953E
:1053200008F4B1609395C1F7BB0F58F711F460FF13
:10533000E8CF6F5F7F4F8F4F9F4FE3CF0C9458297B
:10534000FA01DC01AA0FBB1F9B01AC01BF5728F477
:10535000222733274427507820C0B75190F4AB2F31
:105360000024469537952795011CA395D2F300207C
:1053700071F0220F331F441FB395DAF30ED00C9453
:10538000612761307105A0E88A07B94630F49B01B6
:10539000AC016627772788279078309621F0208304
:1053A00031834283538308950E94E7290C94242972
:1053B0000E94162938F00E941D2920F0952311F033
:1053C0000C94E6280C94EC2811240C9458290E9483
:1053D000352970F3959FC1F3950F50E0551F629FDB
:1053E000F001729FBB27F00DB11D639FAA27F00D3E
:1053F000B11DAA1F649F6627B00DA11D661F829F65
:105400002227B00DA11D621F739FB00DA11D621F49
:10541000839FA00D611D221F749F3327A00D611D66
:10542000231F849F600D211D822F762F6A2F112448
:105430009F5750409AF0F1F088234AF0EE0FFF1F7B
:10544000BB1F661F771F881F91505040A9F79E3FD2
:10545000510580F00C94E6280C9458295F3FE4F342
:10546000983ED4F3869577956795B795F795E79528
:105470009F5FC1F7FE2B880F911D9695879597F931
:1054800008959F930E94592A0F9007FCEE5F0C9499
:10549000822A9F3F31F0915020F487957795679548
:1054A000B795880F911D9695879597F908950C9457
:1054B000EC280E943D29D8F3E894E0E0BB279F57F1
:1054C000F0F02AED3FE049EC06C0EE0FBB0F661F7F
:1054D000771F881F28F0B23A62077307840728F005
:1054E000B25A620B730B840BE3959A9572F780386E
:1054F00030F49A95BB0F661F771F881FD2F790482C
:105500000C944B2AEF93E0FF07C0A2EA2AED3FE09C
:1055100049EC5FEB0E9479270E9424290F900394A5
:1055200001FC9058E2E7F1E00C94962A9F938F9348
:105530007F936F93FF93EF939B01AC010E94D4295B
:10554000EF91FF910E94EF282F913F914F915F9132
:105550000C94D429AA1BBB1B51E107C0AA1FBB1F77
:10556000A617B70710F0A61BB70B881F991F5A95EF
:10557000A9F780959095BC01CD01089597FB072E62
:1055800016F4009407D077FD09D00E94AA2A07FCE0
:1055900005D03EF4909581959F4F08957095619543
:1055A0007F4F0895EE0FFF1F0590F491E02D0994B1
:1055B000F999FECF92BD81BDF89A992780B50895DB
:1055C000A6E1B0E044E050E00C94122BA8E1B0E07A
:1055D00042E050E00C94122B262FF999FECF92BD99
:1055E00081BDF89A019700B4021639F01FBA20BDA8
:1055F0000FB6F894FA9AF99A0FBE08950396272FDA
:105600000E94ED2A0E94EC2A252F0E94ED2A242FC9
:105610000C94ED2A0196272F0E94ED2A0C94EC2A77
:10562000DC01CB01FC01F999FECF06C0F2BDE1BD62
:10563000F89A319600B40D9241505040B8F7089551
:04564000F894FFCF0C
:105644000102C4012808140A321E2D20CB20A020F8
:105654006A2030200191909466F4F5F6F7404D36B7
:10566400392106D4059E056505F80411052A05436C
:0256740005002F
:00000001FF
